:040000002FEF1FF0CF
:0E3DAE00C9509E96C96A9EA6FED7C950120043
:103DBD004D6963726F6368697020526F636B730036
:103DCD0000E8CF01F0C9509E96C69E01C0C9FFC63E
:103DDD00BE12009EB61200FDD7E8CF02F008D00249
:103DED0050D96EDA6AD7EC1EF0DF6E022A01060199
:103DFD0066F6D712000350046E02C005F0899C03CD
:103E0D000EE7EC1EF00450E7EC1EF00550E7EF1E38
:103E1D00F0899C050EE7EC1EF0D7EC1EF0046E0544
:103E2D006A898C04C002F005C003F01200E8CF01CE
:103E3D00F008D00150D96EDA6ADF50C96E012AC779
:103E4D00A0FED70150D96EDA6ADF50D8B41200F156
:103E5D00D7BD0EF66E3D0EF76E000EF86E00EE3607
:103E6D00F010EE11F00900F5CFEEFFE550E150FA3C
:103E7D00E10001B5EF1FF00350056E02C006F08999
:103E8D009C030EE7EC1EF00550E7EC1EF00650E724
:103E9D00EC1EF0D7EC1EF0046E898C04501200035A
:103EAD0050046E02C005F0899C060EE7EC1EF089E9
:103EBD008C0D0EE82EFED700F0899C020EE7EC1E4D
:103ECD00F00450E7EC1EF00550E7EF1EF007500A26
:103EDD006E06C00BF0899C060EE7EC1EF0898C0D6A
:103EED000EE82EFED700F0899C020EE7EC1EF00ABC
:103EFD0050E7EC1EF00B50E7EC1EF00850E7EC1EFF
:103F0D00F0898C0FEC1FF002A01200FBD7E8CF0355
:103F1D00F03F0EC716C66A0350C6120250C71205EF
:103F2D00D0C78C12D0C78CC6880FD00150F9E002D3
:103F3D000AF9E0010AF8E008D09486928A7E980A80
:103F4D00D0948608D0949606D00350040AF5E0016B
:103F5D000AF7E0F8D79488949AC68A1200700ED3A7
:103F6D0012D350FC0B0209D36E898E898C929C92D0
:103F7D009E016A026A010E8DEC1FF0010E356EA5D1
:103F8D000E346E35C006F0076A34C008F0096A6D4C
:103F9D00EC1FF0010E356E35C002F0036A42EC1FC6
:103FAD00F0346E3450A50AD8B4352A20EE36F01010
:103FBD00EE20F0110EDECFE6FFE82EFCD7356A3588
:103FCD00C002F0036A56EC1FF0200E1DEC1FF089A5
:103FDD008C0FEC1FF002B0FCD7356A35C002F00330
:103FED006A01EC1FF0140E016E0C0EF3EC1EF0C600
:043FFD009AFFD7FF51
:020000040020DA
:08000000FFFFFFFFFFFFFFFF00
:020000040030CA
:0E000000FF08091EFF8881FF0FC00FE00F40B0
:00000001FF
