:0400000072EF00F0AB
:10000800FACF15F0FBCF16F0E9CF17F0EACF18F0CA
:10001800E1CF19F0E2CF1AF0D9CF1BF0DACF1CF0FC
:10002800F3CF1DF0F4CF1EF0F6CF1FF0F7CF20F07E
:10003800F8CF21F0F5CF22F09EA001D001D005D055
:1000480091EC14F09E902DD02CD0A1A201D001D01B
:1000580005D090EC14F0A19224D023D09EAC01D00E
:1000680001D007D09D9C08EC10F09E9C9D8C19D067
:1000780018D09EA401D001D004D051EC0FF09E946A
:1000880000D0A1A001D001D004D08DEC14F0A19033
:1000980000D09EA601D001D004D08FEC14F09E961B
:1000A80000D022C0F5FF21C0F8FF20C0F7FF1FC015
:1000B800F6FF1EC0F4FF1DC0F3FF1CC0DAFF1BC013
:1000C800D9FF1AC0E2FF19C0E1FF18C0EAFF17C044
:1000D800E9FF16C0FBFF15C0FAFF1100A3EF13F0EC
:100F00000F0F1F1F3F3F7F7FF0F0E0E0C0C08080E9
:100F10000000F9EC13F035EC13F064EC14F053EC32
:100F200014F03EEC14F028EC14F0CBEC11F012ECC1
:100F300014F00001000E00010001C16F0001600EFD
:100F40000001C06F72EC0EF00001000E0001000104
:100F5000C16F00018D0E0001C06F72EC0EF0F28EB9
:100F6000F28C000E01010101CE6F000E0101CD6F68
:100F7000000E01010101D06F000E0101CF6F000EC4
:100F800001010101C96F000E0101CA6F000E0101CC
:100F9000CB6F000E0101CC6F3250D8B4FDD7335067
:100FA000D8B43BD00101010E00010001C76F01015F
:100FB000300E0001C66F0101010E00010001C96F72
:100FC0000101000E0001C86F0001000E00010001C8
:100FD000CB6F0001600E0001CA6FCCEC0BF0010179
:100FE000010E00010001C76F0101500E0001C66F24
:100FF0000101010E00010001C96F0101100E000185
:10100000C86F0001000E00010001CB6F00018D0EC2
:101010000001CA6FCCEC0BF03AD00101010E0001C7
:101020000001C76F0101900E0001C66F0101010EA2
:1010300000010001C96F0101600E0001C86F0001CD
:10104000000E00010001CB6F0001600E0001CA6FAD
:10105000CCEC0BF00101010E00010001C76F010192
:10106000B00E0001C66F0101010E00010001C96F41
:101070000101700E0001C86F0001000E00010001A7
:10108000CB6F00018D0E0001CA6FCCEC0BF000019C
:1010900000016351601161116211D8B43AD00001AE
:1010A00060C0C6F1000161C0C7F1000162C0C8F1B3
:1010B0000101C56BC8C1C5F0C7C1C4F0C6C1C3F04A
:1010C000C5C1C2F0000E00010001C76F080E00018B
:1010D000C66F16EC0AF0C2C0CDF1C3C0CEF1030E4C
:1010E00001010101D06F020E0101CF6FCDC123F0CC
:1010F000CEC124F0CFC125F0D0C126F026EC12F0ED
:1011000026C067F025C066F024C065F023C064F0F7
:101110000DD0000E00010001646F000E0001656F2C
:10112000000E0001666F000E0001676F65C0CDF113
:1011300066C0CEF1000E01010101D06F1F0E01014A
:10114000CF6FCDC123F0CEC124F0CFC125F0D0C1E7
:1011500026F026EC12F026C0CCF125C0CBF124C03D
:10116000CAF123C0C9F1CBC170F0000100016B517D
:10117000681169116A11D8B43AD0000168C0C6F18B
:10118000000169C0C7F100016AC0C8F10101C56B67
:10119000C8C1C5F0C7C1C4F0C6C1C3F0C5C1C2F063
:1011A000000E00010001C76F080E0001C66F16ECAB
:1011B0000AF0C2C0CDF1C3C0CEF1030E010101019E
:1011C000D06F020E0101CF6FCDC123F0CEC124F04C
:1011D000CFC125F0D0C126F026EC12F026C06FF06A
:1011E00025C06EF024C06DF023C06CF00DD0000E51
:1011F000000100016C6F000E00016D6F000E000118
:101200006E6F000E00016F6F6DC0CDF16EC0CEF13C
:10121000000E01010101D06F1F0E0101CF6FCDC182
:1012200023F0CEC124F0CFC125F0D0C126F026ECAA
:1012300012F026C0CCF125C0CBF124C0CAF123C0E6
:10124000C9F1CBC171F00001000190518D118E11D7
:101250008F11D8B43AD000018DC0C6F100018EC004
:10126000C7F100018FC0C8F10101C56BC8C1C5F04D
:10127000C7C1C4F0C6C1C3F0C5C1C2F0000E0001B1
:101280000001C76F080E0001C66F16EC0AF0C2C05D
:10129000CDF1C3C0CEF1030E01010101D06F020EEA
:1012A0000101CF6FCDC123F0CEC124F0CFC125F015
:1012B000D0C126F026EC12F026C094F025C093F0A1
:1012C00024C092F023C091F00DD0000E0001000167
:1012D000916F000E0001926F000E0001936F000EDF
:1012E0000001946F92C0CDF193C0CEF1000E0101C8
:1012F0000101D06F1F0E0101CF6FCDC123F0CEC110
:1013000024F0CFC125F0D0C126F026EC12F026C083
:10131000CCF125C0CBF124C0CAF123C0C9F1CBC1A7
:101320009DF0000100019851951196119711D8B4C4
:101330003AD0000195C0C6F1000196C0C7F1000186
:1013400097C0C8F10101C56BC8C1C5F0C7C1C4F0E1
:10135000C6C1C3F0C5C1C2F0000E00010001C76FD5
:10136000080E0001C66F16EC0AF0C2C0CDF1C3C072
:10137000CEF1030E01010101D06F020E0101CF6F0A
:10138000CDC123F0CEC124F0CFC125F0D0C126F0CD
:1013900026EC12F026C09CF025C09BF024C09AF0E9
:1013A00023C099F00DD0000E00010001996F000ECE
:1013B00000019A6F000E00019B6F000E00019C6FF0
:1013C0009AC0CDF19BC0CEF1000E01010101D06F9A
:1013D0001F0E0101CF6FCDC123F0CEC124F0CFC1CC
:1013E00025F0D0C126F026EC12F026C0CCF125C0A5
:1013F000CBF124C0CAF123C0C9F1CBC19EF00101D9
:10140000C56F000E326E0101C5510101C56F000E9E
:10141000000100017C6F0101C5510101C56F000E83
:1014200000010001A96F0101C551B6D5010E0001EF
:101430000001CF6F000E0001D06F000E0001D16FD0
:10144000000E0001D26F000E00010001D36F000EEC
:101450000001D46F000E0001D56F000E0001D66FA1
:10146000010E00010001DB6F000E0001DC6F000EB9
:101470000001DD6F000E0001DE6F020E00010001B1
:10148000D76F000E0001D86F000E0001D96F000E5B
:101490000001DA6F00010001C6290AD0D8900001CE
:1014A0000001DB370001DC370001DD370001DE37EA
:1014B000E82EF4D700010001C6290AD0D890000117
:1014C0000001D7370001D8370001D9370001DA37DA
:1014D000E82EF4D7C6C0C8F0FF0E0001C8270001EF
:1014E000C8290AD0D89000010001CF370001D037B9
:1014F0000001D1370001D237E82EF4D700010001F6
:10150000C751C611D8B409D0200E00010001C65D34
:10151000000E0001C759D8A012D0000E306E010E87
:101520002F6EFF0E00010001C26FFF0E0001C36F9E
:10153000FF0E0001C46F7F0E0001C56F1200000195
:101540000001C551C211C311C411D8A430D0000E7E
:1015500000010001C26F000E0001C36F000E000108
:10156000C46F800E0001C56F12000001D890000109
:10157000C2370001C3370001C4370001C53700017D
:101580000001DB5100010001D35F00010001DC51CB
:1015900000010001D45B00010001DD5100010001E8
:1015A000D55B00010001DE5100010001D65B0001A6
:1015B0000001DB5100010001C25D00010001DC51AE
:1015C00000010001C35900010001DD5100010001CB
:1015D000C45900010001DE5100010001C559D8B015
:1015E00023D0C3D70001D8900001C5330001C43314
:1015F0000001C3330001C23300010001DB510001CF
:101600000001D32700010001DC5100010001D423B7
:1016100000010001DD5100010001D523000100019E
:10162000DE5100010001D62300010001D751000165
:101630000001C25D00010001D85100010001C35941
:1016400000010001D95100010001C459000100014D
:10165000DA5100010001C559D8B0C4D7C2C0CBF0DF
:10166000C3C0CCF0C4C0CDF0C5C0CEF0000E0001A8
:101670000001CA6F000E0001C96F77D0CBC0BAF06D
:10168000CCC0BBF0CDC0BCF0CEC0BDF0CBC0BEF076
:10169000CCC0BFF0CDC0C0F0CEC0C1F0F4EC12F0B1
:1016A00000010001C651E82A0AD000010001000132
:1016B000D890BD33BC3300010001BB33BA33000105
:1016C000E82EF3D7BDC0CEF0BCC0CDF0BBC0CCF08F
:1016D000BAC0CBF000010001D75100010001CB5D81
:1016E00000010001D85100010001CC5900010001A6
:1016F000D95100010001CD5900010001DA5100016A
:101700000001CE59D8A022D00001D8900001CE33DC
:101710000001CD330001CC330001CB3300010001C7
:10172000CF5100010001D32700010001D051000179
:101730000001D42300010001D15100010001D52393
:1017400000010001D25100010001D6230001000177
:10175000D2350001D2330001D1330001D033000172
:10176000CF3300010001C94BCA2B00010001C65153
:1017700000010001C95D00010001C7510001000125
:10178000CA59D8A07BD7D3C0C2F0D4C0C3F0D5C04B
:10179000C4F0D6C0C5F01200000E00010001DD6FDC
:1017A000000E0001DC6FA20E00010001D46FFB0EE1
:1017B0000001D56FFF0E0001D66F000E0001D76F3C
:1017C000610E00010001D86FFA0E0001D96FFE0E04
:1017D0000001DA6F000E0001DB6F000E0001000156
:1017E000DD6F000E0001DC6F00010001DD51800A99
:1017F000800F080ED8B4DC5DD8B01200D89000017C
:101800000001DC350001CC6F00010001DD35000175
:10181000CD6F0001CC5100010001C625D96E000139
:10182000CD5100010001C721DA6EDECFCEF0DDCF51
:10183000CFF00001CEC0E2F00001CFC0E3F0000124
:101840000001E46B0001E56BE2C023F0E3C024F08B
:10185000E2C025F0E3C026F026EC12F026C0E5F049
:1018600025C0E4F024C0E3F023C0E2F0D8C027F0A4
:10187000D9C028F0DAC029F0DBC02AF0000120EE40
:1018800008F00001CA51D9260001CB51DA22DECF7F
:10189000CCF0DECFCDF0DECFCEF0DECFCFF000014A
:1018A000E2C0D0F00001E3C0D1F00001E4C0D2F00A
:1018B0000001E5C0D3F00001D01FD11FD21FD31FFC
:1018C000D02B000ED123D223D3230001CC51000111
:1018D000D0252B6E0001CD510001D1212C6E0001CD
:1018E000CE510001D2212D6E0001CF510001D32134
:1018F0002E6E27C0BAF028C0BBF029C0BCF02AC0A9
:10190000BDF02BC0BEF02CC0BFF02DC0C0F02EC06B
:10191000C1F000EC11F0000E246E370E236E5DEC6A
:101920000DF026C0E1F025C0E0F024C0DFF023C0B8
:10193000DEF000010001DE5100010001E22500019E
:10194000CC6F00010001DF5100010001E321000123
:10195000CD6F00010001E05100010001E421000110
:10196000CE6F00010001E15100010001E5210001FD
:10197000CF6F000120EE08F00001CA51D926000106
:10198000CB51DA22CCC0DEFFCDC0DEFFCEC0DEFF01
:10199000CFC0DDFFD906D906D4C027F0D5C028F0C6
:1019A000D6C029F0D7C02AF0CAC0D9FFCBC0DAFF11
:1019B000DECFCCF0DECFCDF0DECFCEF0DECFCFF07D
:1019C0000001E2C0D0F00001E3C0D1F00001E4C0AA
:1019D000D2F00001E5C0D3F00001D01FD11FD21F0B
:1019E000D31FD02B000ED123D223D3230001CC51FF
:1019F0000001D0252B6E0001CD510001D1212C6EAC
:101A00000001CE510001D2212D6E0001CF51000105
:101A1000D3212E6E27C0BAF028C0BBF029C0BCF07D
:101A20002AC0BDF02BC0BEF02CC0BFF02DC0C0F04E
:101A30002EC0C1F000EC11F0000E246E370E236EA4
:101A40005DEC0DF026C0E1F025C0E0F024C0DFF031
:101A500023C0DEF000010001DE5100010001E2259B
:101A60000001CC6F00010001DF5100010001E32102
:101A70000001CD6F00010001E05100010001E421EF
:101A80000001CE6F00010001E15100010001E521DC
:101A90000001CF6FCAC0D9FFCBC0DAFFCCC0DEFFD8
:101AA000CDC0DEFFCEC0DEFFCFC0DDFFD906D90638
:101AB00000010001DC4BDD2B97D6000E0001000178
:101AC000C26F000E0001C36F000E0001C46F000E54
:101AD0000001C56F000E00010001BE6F000E000185
:101AE000BF6F000E0001C06F000E0001C16F20EE3D
:101AF00005F02350D9262450DA22DF500001BA6FB6
:101B00000001BAAF1CD0FF0E00010001C26F000E31
:101B10000001C36F000E0001C46F000E0001C56F0D
:101B200000010001C4C0C5F000010001C3C0C4F041
:101B300000010001C2C0C3F000010001C26B20EE31
:101B400005F02350D9262450DA22DF500001BA6F65
:101B50000001BA5100010001C21300010001C4C01C
:101B6000C5F000010001C3C0C4F000010001C2C003
:101B7000C3F000010001C26B20EE04F02350D9260F
:101B80002450DA22DF500001BA6F0001BA5100017F
:101B90000001C21300010001C4C0C5F00001000132
:101BA000C3C0C4F000010001C2C0C3F000010001C5
:101BB000C26B20EE03F02350D9262450DA22DF50E6
:101BC0000001BA6F0001BA5100010001C21320EEFA
:101BD00002F02350D9262450DA22DF500001BA6FD8
:101BE0000001BA5100010001BE6F0001BF6B00018E
:101BF000C06B0001C16B00010001C0C0C1F0000159
:101C00000001BFC0C0F000010001BEC0BFF0000174
:101C10000001BE6B20EE01F02350D9262450DA22B9
:101C2000DF500001BA6F0001BA5100010001BE137C
:101C300000010001C0C0C1F000010001BFC0C0F040
:101C400000010001BEC0BFF000010001BE6B23C057
:101C5000D9FF24C0DAFFDF500001BA6F0001BA518A
:101C600000010001BE13010E00010001BE27000E9D
:101C70000001BF23000E0001C023000E0001C1239C
:101C8000170E0001BA6F00010001C1350001C13318
:101C90000001C0330001BF330001BE330001BA2F81
:101CA000F2D700010001BE5100010001C22700016E
:101CB0000001BF5100010001C32300010001C05118
:101CC00000010001C42300010001C1510001000115
:101CD000C523C2C023F0C3C024F0C4C025F0C5C0D2
:101CE00026F01200C0C0D9FFC1C0DAFF000EDE6EC0
:101CF000000EDE6E000EDE6E000EDD6EDD52DD5279
:101D0000000120EE04F00001C051D9260001C151AC
:101D1000DA22000EDE6E000EDE6E000EDE6E000EAB
:101D2000DD6EDD52DD52000120EE08F00001C051F1
:101D3000D9260001C151DA22000EDE6E000EDE6EE1
:101D4000000EDE6E000EDD6EDD52DD52000120EE73
:101D50000CF00001C051D9260001C151DA22000E59
:101D6000DE6E000EDE6E000EDE6E000EDD6EDD52EB
:101D7000DD52000120EE10F00001C051D926000113
:101D8000C151DA22000EDF6E000120EE11F00001D9
:101D9000C051D9260001C151DA22000EDF6E0001C8
:101DA00020EE12F00001C051D9260001C151DA2203
:101DB000000EDE6E000EDE6E000EDE6E000EDD6EBC
:101DC000DD52DD52000120EE16F00001C051D9268F
:101DD0000001C151DA22000EDE6E000EDE6E000E32
:101DE000DE6E000EDD6EDD52DD52000120EE1AF0D7
:101DF0000001C051D9260001C151DA22000EDF6E68
:101E0000000120EE1BF00001C051D9260001C15194
:101E1000DA22000EDF6E000120EE1CF00001C0513E
:101E2000D9260001C151DA22000EDF6E1D0E00011D
:101E30000001C02500010001BA6F000E0001000181
:101E4000C1210001BB6F0F0E00010001BD6F080E24
:101E50000001BC6F000E00010001BF6F080E000101
:101E6000BE6FB2EC12F0250E00010001C02500018A
:101E70000001BA6F000E00010001C1210001BB6F1B
:101E80000F0E00010001BD6F000E0001BC6F000EBF
:101E900000010001BF6F080E0001BE6FB2EC12F02E
:101EA0001200000E146E000E136E342A010E3464FC
:101EB00004D0106E000E346E1050346608D0362AEE
:101EC000070E366404D0106E000E366E105034507B
:101ED000D8B44AD03650010D0001AA0EF324D96EB1
:101EE0000001000EF420DA6EDF50116E3650010D45
:101EF0000001B20EF324D96E0001000EF420DA6E58
:101F0000DF50126E11C001F012C002F06DEC11F042
:101F100001C013F002C014F000019DC001F0026A7C
:101F200013C003F014C004F0D1EC13F001C013F09F
:101F300002C014F000019EC001F0026A13C003F059
:101F400014C004F06EEC12F001C013F002C014F0E3
:101F500000010001A951D8B454D013C001F014C03D
:101F600002F072EC13F049D03650010D00017D0EE5
:101F7000F324D96E0001000EF420DA6EDF50116EEA
:101F80003650010D0001850EF324D96E0001000EBC
:101F9000F420DA6EDF50126E11C001F012C002F0B0
:101FA0006DEC11F001C013F002C014F0000170C01C
:101FB00001F0026A13C003F014C004F0D1EC13F076
:101FC00001C013F002C014F0000171C001F0026AF8
:101FD00013C003F014C004F06EEC12F001C013F053
:101FE00002C014F0000100017C51D8B40AD013C023
:101FF00001F014C002F072EC13F001C013F002C043
:1020000014F013C003F014C004F090EC10F01200B0
:10201000C4CF04F0056A0450056E046AC35004126C
:1020200009D0070E056EFF0E03D0000E056E400EA0
:10203000046E0DD03D50020AD8B409D0010AD8B4BC
:1020400006D0090AD8B4EDD7060AD8B4EED733665D
:1020500015D03D50010D0001E60EF324D96E0001AC
:10206000000EF420DA6EDF50016E0150100D0101F8
:10207000000EF324026E0101010E14D03D50010D3B
:102080000001E60EF324D96E0001000EF420DA6E92
:10209000DF50016E0150100D0101600EF324026E3D
:1020A0000101010EF420036E3550020DF35002249D
:1020B000D96EF4500320DA6E04C0DEFF05C0DDFFE8
:1020C0003D50010D0001F30EF324D96E0001000E06
:1020D000F420DA6EDF503D6E3D50020AD8A416D0CF
:1020E000352A070E356404D0016E000E356E01509E
:1020F00035660CD0332A010E336404D0016E000E15
:10210000336E0150016E010E326E01503DC001F080
:1021100001460146C2500118C30B0118C26E1200DD
:1021200003C006F00450076E8A868130E832E83238
:10213000010B056E8A30E832E832010B0518D8A48D
:10214000F4D707C001F082EC14F006C001F082EC75
:1021500014F08A948130E832010B056E8A30E8323F
:10216000010B0518D8A4F6D78A848130E832010B18
:10217000056E8A30E832010B0518D8A4F6D78A9488
:102180008130E832010B056E8A30E832010B051808
:10219000D8A4F6D73450D8B413D089808050010B1E
:1021A000056E8950010B0518D8A4F8D789928030A4
:1021B000010B056E8930010B0518D8B413D0F7D781
:1021C00089908050010B056E8950010B0518D8A429
:1021D000F8D789828030010B056E8930010B051814
:1021E000D8A4F8D78A968130E832E832010B056E20
:1021F0008A30E832E832010B0518D8B41200F3D760
:10220000000EEA6EBA0EE96E000EE26EBE0EE16ED0
:10221000EE50E602F3CF37F0F4CF38F0EE50E6029E
:10222000F3CF39F0F4CF3AF0EF50E502F3CF3BF0C3
:10223000F4CF3CF0ED50E602F3503A27F4503B2344
:10224000E86A3C23ED50E702F3503A27F4503B2371
:10225000E86A3C23EE50E502F3503927F4503A2364
:10226000E86A3B23E86A3C23EE50E550ED50E70274
:10227000F3503927F4503A23E86A3B23E86A3C23B9
:10228000ED50E602F3503827F4503923E86A3A2338
:10229000E86A3B23E86A3C23EF50E702F350382713
:1022A000F4503923E86A3A23E86A3B23E86A3C237E
:1022B00000010001C1AF06D0BA513A5FBB513B5B90
:1022C000BC513C5B00010001BDAF1200BE513A5F42
:1022D000BF513B5BC0513C5B1200000E096E080E03
:1022E000086E000E0B6E000E0A6E000E0D6E010ED3
:1022F0000C6E000E0F6E000E0E6E000E0F6E000EB6
:102300000E6E3AD00EC003F0010E03260EC004F08C
:102310000CC005F0042A02D0D8900536042EFCD754
:1023200005500114066E076A032A03D0D8900636BA
:102330000736032EFBD706500A1207500B120EC0A9
:1023400003F00EC004F00CC005F0042A02D0D890AF
:102350000536042EFCD705500214066E076A032AC0
:1023600003D0D89006360736032EFBD706500A1244
:1023700007500B120E4A0F2A0F50800A036E0850A6
:102380000E5C0950800A0358D8A0BCD70AC001F0DF
:102390000BC002F012008A848A86939493968A94E2
:1023A0008130E832010B236E8A30E832010B2318AA
:1023B000D8A4F6D78A848130E832010B236E8A30A4
:1023C000E832010B2318D8A4F6D78A968130E83278
:1023D000E832010B236E8A30E832E832010B231811
:1023E000D8A4F4D78A868130E832E832010B236E14
:1023F0008A30E832E832010B2318D8A4F4D792903F
:10240000929289908050010B236E8950010B231802
:10241000D8A4F8D789808050010B236E8950010B16
:102420002318D8A4F8D789928030010B236E893005
:10243000010B2318D8A4F8D789828030010B236EB2
:102440008930010B2318D8B41200F7D7000E000111
:102450000001BA6F000E0001BB6F000E0001BC6FDF
:10246000000E0001BD6F000EEA6E230EE96E000E35
:10247000E26E250EE16EEF50E702F4CFBBF0F3CF32
:10248000BAF0EC50E402F4CFBDF0F3CFBCF0ED5065
:10249000EF50E502F350BB27F450BC23E86ABD239C
:1024A000EE50EF50E702F350BB27F450BC23E86A2C
:1024B000BD2326AE04D02351BC5F2451BD5B24AEA6
:1024C00004D02551BC5F2651BD5BBAC023F0BBC010
:1024D00024F0BCC025F0BDC026F01200000E0B6E2B
:1024E000100E0A6E000E0D6E010E0C6E0106D8A0C5
:1024F00002060250800A056E0A50015C0B50800AE9
:102500000558D8B02AD0D8900134056E0CC006F01A
:102510000DC007F0052A03D0D89006360736052EE1
:10252000FBD7061C086E071C096E085003160950DD
:102530000416D8900134056E010E05260CC006F075
:102540000DC007F0052A03D0D89006360736052EB1
:10255000FBD7065003120750041203C001F004C059
:1025600002F01200BAC025F0BBC026F022D0000154
:102570000001BE07D8A0BF0700010001BC51236EB7
:1025800000010001BD51246E0001BC4BBD2B23C0D6
:10259000F6FF24C0F7FF000EF86E25C0D9FF26C055
:1025A000DAFF254A262A0800F5CFDFFFDF50D8B42E
:1025B0000FD000010001BF51BE11D8B409D0D7D748
:1025C00025C0D9FF26C0DAFF000EDF6E254A262A75
:1025D00000010001BE07D8A0BF070001BE29D8B482
:1025E000BF29D8B41200ECD7000E236E000E246E63
:1025F000000E256E000E266E00010001BAA110D05B
:1026000000010001BE51232600010001BF51242218
:1026100000010001C051252200010001C151262204
:102620000001D8900001BE370001BF370001C0375C
:102630000001C1370001D8900001BD330001BC3357
:102640000001BB330001BA3300010001BD51BA11D2
:10265000BB11BC11D8A4D0D723C0BAF024C0BBF0A2
:1026600025C0BCF026C0BDF0120092849286928AEA
:102670009382948493800F010F0148810F010F0111
:1026800048830F010F0148950F010F0148970F0173
:102690000F0148990F010F0149810F010F01498373
:1026A0000F010F0149950F010F0149970F010F010C
:1026B0004999C2903F0EC216C250C30B0809C26EA0
:1026C000C18EC19CC150C70B1009C16EC150F80B1F
:1026D0000609C16EFC0E0E010E01B8179E9C9D8C62
:1026E000C2801200030E0114056E000E0214066E65
:1026F000000E086E070E076E0850800A800F010E4C
:10270000D8B4075CD8A01AD0D89005360636D89031
:1027100005360636D89002320132D89002320132A4
:10272000030E0114036E000E0214046E0350051212
:10273000045006120706D8A00806DED705C001F02F
:1027400006C002F0120001EE00F0C00EEE6AE806CC
:10275000FDE100EE60F05A0EEE6AE806FDE100EEE3
:1027600027F0160EEE6AE806FDE1EA0EF66E280E78
:10277000F76E000EF86E00EEE6F010EE1AF00900AB
:10278000F5CFEEFFE550E150FAE1240EF66E290E8A
:10279000F76E000EF86E0900F5CF3DF0000189EFED
:1027A00007F0000E0B6E080E0A6E086809680B50E1
:1027B000800A056E01500A5C0250800A0558D8A0B4
:1027C00013D0015000080A24056ED8900534066E17
:1027D0000628076E03D0D89009320832072EFBD79F
:1027E000085003160950041603C001F004C002F09B
:1027F00012009B9E9B8C9B909B929B949B969B987C
:102800009B9AFC0ED316D39ED388D38AD38C878809
:102810008786D3A6FED7D3A4FED787A4FED787ACDE
:102820001200FDD7C69A8A988A38010B236E813828
:10283000010B2318D8A4F8D79398938A949EC78E37
:10284000C79CC688C690C692C694C696C68A120011
:10285000B450F00B0B09B46ECF0EB4163F0EB41685
:10286000040EB66E800EB56E0F010F015251C70BEC
:1028700008090F01526FA190A0801200BA50F00B0E
:102880000B09BA6ECF0EBA163F0EBA162E0EBC6EDC
:10289000E00EBB6E0F0152910F0152930F01529542
:1028A0009E949D8412007990979E000E7B6E000E80
:1028B0007A6E3F0E7916CF0E7916799679847982E1
:1028C000A192A09279801200CD909A9E000ECF6EB8
:1028D000000ECE6E3F0ECD16CF0ECD16CD96CD840A
:1028E000CD829E909D90CD801200000000010200DC
:1028F000000000000304050000030A0400000000BB
:10290000000C0B02C9CF02F09E96C69E01C0C9FF03
:10291000C6BE12009EB61200FDD7C282120012007F
:062920001200120002008B
:020000040001F9
:08FFF800ACF79DF101F8FFFBDD
:00000001FF
